:020000040800F2
:1000000090060020A1010008210C0008230C000824
:10001000270C00082B0C00082F0C00080000000023
:10002000000000000000000000000000330C000889
:10003000350C000800000000370C0008390C0008DF
:10004000BB010008BB010008BB010008BB010008A0
:10005000BB010008BB010008BB010008BB01000890
:10006000BB010008BB010008BB010008BB01000880
:10007000BB010008BB010008BB010008BB01000870
:10008000BB010008BB010008BB010008BB01000860
:10009000BB010008BB010008BB010008BB01000850
:1000A000BB010008BB010008BB010008BB01000840
:1000B000BB010008BB010008BB010008BB01000830
:1000C000BB010008BB010008BB010008BB01000820
:1000D000BB010008BB010008BB010008BB01000810
:1000E000BB010008BB010008BB01000800000000C4
:1000F0000000000000000000000000000000000000
:10010000BB01000800F002F800F03AF80AA090E8FD
:10011000000C82448344AAF10107DA4501D100F0C2
:100120002FF8AFF2090EBAE80F0013F0010F18BF55
:10013000FB1A43F001031847EC1700000C180000ED
:10014000103A24BF78C878C1FAD8520724BF30C803
:1001500030C144BF04680C607047000000230024D5
:1001600000250026103A28BF78C1FBD8520728BFC7
:1001700030C148BF0B6070471FB51FBD10B510BD23
:1001800001F0D6FA1146FFF7F7FF00F08CFD01F001
:10019000F4FA03B4FFF7F2FF03BC01F0F9FA000030
:1001A0000948804709480047FEE7FEE7FEE7FEE70B
:1001B000FEE7FEE7FEE7FEE7FEE7FEE70448054947
:1001C000054A064B70470000A3020008050100081D
:1001D0009000002090060020900200209002002055
:1001E0000CB50020019000906848006840F4803011
:1001F0006649086000BF6548006800F40030009060
:100200000198401C0190009820B90198A0F57F4109
:10021000FF39F0D15D48006810F4003F02D00120A2
:10022000009001E0002000900098012834D1574848
:10023000406856494860084640684860084640683B
:1002400040F48060486008464068514908404F4982
:100250004860084640684F4908434C494860084692
:10026000006840F08070086000BF4848006810F0E7
:10027000007FFAD04548406820F0030043494860B9
:100280000846406840F00200486000BF3F484068B0
:1002900000F00C000828F9D10CBD10B5FFF7A0FF45
:1002A00010BD10B53948006840F0010037490860BA
:1002B00008464068384908403449486008460068A4
:1002C00036490840314908600846006820F480201B
:1002D000086008464068324908402C4948604FF49D
:1002E0001F008860FFF7D9FF10BD70B50021002006
:1002F000002200230024254D6D6805F00C0121B17A
:10030000042906D008292FD107E0264D264E356056
:100310002EE0264D244E35602AE01C4D6D6805F414
:1003200070101A4D6D6805F00062D50EC5EB051210
:1003300002EB9045A81C154D6D6805F4803323B978
:100340001B4D4543184E35600DE0104D6D6815F49A
:10035000003F04D0174D4543134E356003E0134D65
:100360004543114E356003E00E4D0F4E356000BF22
:1003700000BF064D6D6805F0F00109090E4D6C5C7B
:10038000094D2D68E540084E356070BD00100240F3
:10039000FFFFC0F7000007080000FFE8FFFFF6FEC0
:1003A000FFFF00F700127A0000000020001BB700DA
:1003B00000093D00808D5B000400002010B504465C
:1003C000E748844208D10121042000F0A1FB00216C
:1003D000042000F09DFB46E0E248844208D1012160
:1003E000082000F095FB0021082000F091FB3AE086
:1003F000DD48844208D10121102000F089FB002152
:10040000102000F085FB2EE0D848844208D101215D
:10041000202000F07DFB0021202000F079FB22E06D
:10042000D348844208D10121402000F071FB002113
:10043000402000F06DFB16E0CE48844208D1012137
:10044000802000F065FB0021802000F061FB0AE0C5
:10045000C948844207D10121801500F059FB0021D1
:10046000A01500F055FB10BD10B50121084600F0A5
:100470004FFB0021012000F04BFB10BD2DE9F041A6
:10048000024600250026002000230024002791F8C2
:1004900003C00CF00F0591F803C01CF0100F03D03F
:1004A00091F802C04CEA050591F800C0BCF1000FBC
:1004B00031D0146800202BE04FF0010C0CFA00F34F
:1004C000B1F800C00CEA03069E4220D183004FF031
:1004D0000F0C0CFA03F7BC4305FA03FC4CEA0404C6
:1004E00091F803C0BCF1280F06D14FF0010C0CFAB3
:1004F00000FCC2F814C00AE091F803C0BCF1480F38
:1005000005D14FF0010C0CFA00FCC2F810C0401CE1
:100510000828D1D31460B1F800C0BCF1FF0F34D962
:10052000546800202EE000F1080C4FF0010808FA92
:100530000CF3B1F800C00CEA03069E4221D18300FF
:100540004FF00F0C0CFA03F7BC4305FA03FC4CEA1E
:10055000040491F803C0BCF1280F05D100F1080C88
:1005600008FA0CF8C2F8148091F803C0BCF1480FE7
:1005700007D100F1080C4FF0010808FA0CF8C2F896
:100580001080401C0828CED35460BDE8F0814FF69F
:10059000FF710180022181700421C1707047024601
:1005A000002093680B4201D0012000E0002070473A
:1005B0000146886880B2704702460020D3680B422B
:1005C00001D0012000E0002070470146C86880B2D9
:1005D000704701617047416170470AB1016100E0F5
:1005E00041617047C16070474FF480320A438261B5
:1005F00081618261826982697047024600205F4B97
:1006000018684FF68073184040EA021008435B4BAD
:100610001860704731B1594A126842F08002574B56
:100620001A6005E0554A126822F08002534B1A60A6
:100630007047F0B50A46002300240021002500F091
:100640000046B6F1004F02D14C4EF16901E04B4E2D
:100650007168C0F3034583B200F44016B6F5401F3D
:1006600008D121F07061454E766826F07066434FE0
:100670007E6012E000F48016B6F5801F06D10326D6
:1006800006FA05F4A14341F0706106E0460D36011B
:1006900003FA06F6B14341F0706122B1460D36010E
:1006A00003FA06F6314300F00046B6F1004F02D1DE
:1006B000324EF16101E0314E7160F0BD10B50022A3
:1006C0008B071C0F0F2303FA04F204290EDA2B4BBD
:1006D0009B689343294CA36023469B688C07240F97
:1006E00000FA04F42343254CA3602FE008290EDA16
:1006F000224BDB689343214CE3602346DB688C0785
:10070000240F00FA04F423431C4CE3601EE00C2980
:100710000EDA1A4B1B699343184C236123461B695D
:100720008C07240F00FA04F42343144C23610DE0DA
:10073000124B5B699343114C636123465B698C07E1
:10074000240F00FA04F423430C4C636110BD0146EE
:1007500000200A4A506820F40000084350607047A7
:1007600000080140000C014000100140001401404D
:1007700000180140001C0140002001400000014021
:10078000F848006840F00100F649086008464068F3
:10079000F5490840F349486008460068F3490840B5
:1007A000F04908600846006820F480200860084688
:1007B0004068EF490840EB4948604FF41F008860EB
:1007C0007047E849096821F4A021E64A1160114602
:1007D00009680143116070470146002200234A1155
:1007E000012A02D1DF48036806E0022A02D1DD486F
:1007F000036A01E0DB48436A01F01F0201209040D8
:10080000184201D0012070470020FCE718B50020F5
:100810000090002406E03120FFF7DEFF0446009838
:10082000401C00900098A0F57F41FF3901D0002CBA
:10083000F1D03120FFF7D0FF08B1012018BD002012
:10084000FCE701460020C74A106820F0F80040EAA3
:10085000C1001060704730B1C249096841F0010120
:10086000C04A116005E0BF49096821F00101BD4A95
:100870001160704702460020BA4B5868BD4B1840C3
:1008800042EA01031843B74B5860704730B1B5498D
:10089000096841F08071B34A116005E0B149096807
:1008A00021F08071AF4A1160704701460020AD4AC7
:1008B000506820F00300084350607047A948406822
:1008C00000F00C00704701460020A64A506820F056
:1008D000F00008435060704701460020A14A50686C
:1008E00020F4E060084350607047014600209D4AB4
:1008F000506820F460500843506070479949496837
:1009000021F44001974A5160114649680143516002
:10091000704794494968984A1140924A516011467B
:1009200049680143516070478E49096A21F001010D
:100930008C4A11621146096A21F0040111621146C4
:10094000096A01431162704730B18649496A41F032
:100950000101844A516205E08249496A21F001019E
:10096000804A516270477F49096A21F440717D4A8B
:1009700011621146096A01431162704730B1794929
:10098000096A41F40041774A116205E07549096A34
:1009900021F40041734A11627047F0B50021002232
:1009A0000025002600246F4B5B6803F00C0121B189
:1009B000042905D008292AD105E0704B036029E0FD
:1009C0006F4B036026E0674B5B6803F47012654B66
:1009D0005B6803F00065EB0EC3EB031505EB924378
:1009E0009A1C604B5B6803F480361EB9654B534319
:1009F00003600BE05B4B5B6813F4003F03D0624B7A
:100A00005343036002E05E4B5343036002E05B4BE1
:100A1000036000BF00BF534B5B6803F0F00109099E
:100A20005A4B5C5C0368E34043604E4B5B6803F4E5
:100A3000E061090A564B5C5C4368E3408360494BC4
:100A40005B6803F46051C90A514B5C5C4368E34046
:100A5000C360444B5B6803F08053990E414B5B6865
:100A6000C3F381331944082929D2DFE801F00408CF
:100A70000C12161A2024C3685B0803611FE0C368C8
:100A80009B0803611BE00627C368B3FBF7F3036110
:100A900015E0C368DB08036111E0C3685B0803610C
:100AA0000DE00C27C368B3FBF7F3036107E0C368ED
:100AB000DB08036103E0C3681B09036100BF00BFDB
:100AC000F0BD29B1274A52690243264B5A6104E01E
:100AD000244A52698243234B5A61704729B1214A03
:100AE000926902431F4B9A6104E01E4A9269824355
:100AF0001C4B9A61704729B11A4AD2690243194BBB
:100B0000DA6104E0174AD2698243164BDA61704712
:100B100029B1144AD2680243124BDA6004E0114A48
:100B2000D26882430F4BDA60704729B10D4A1269CF
:100B300002430C4B1A6104E00A4A12698243094BD2
:100B40001A61704730B10749096A41F48031054A9A
:100B5000116205E00349096A21F48031014A1162FA
:100B600070470000001002400000FFE8FFFFF6FEA3
:100B7000FFFF00F7FFFFC2F7FF3FFFEF00127A0011
:100B8000001BB70000093D00808D5B0014000020B1
:100B90002400002030B12149096841F400211F4A96
:100BA000116005E01D49096821F400211B4A11600C
:100BB000704701460020194A506820F0E060084361
:100BC0005060704729B1154A527A0243134B5A724A
:100BD00004E0124A527A8243104B5A7270470F480F
:100BE000406A40F080700D494862704701460B48EA
:100BF0008068084201D0012070470020FCE70749C7
:100C0000887270470549496B21F00301034A51631B
:100C10001146496B014351637047000000100240C8
:100C2000704700BFFEE700BFFEE700BFFEE700BF62
:100C3000FEE77047704770477047000008B5012114
:100C40001020FFF74BFF4FF40050ADF800000320D9
:100C50008DF8020010208DF803006946FE48FFF76A
:100C60000DFC4FF40051FC48FFF7B5FC01210420B6
:100C7000FFF734FF0320ADF800008DF802000420D8
:100C80008DF803006946F548FFF7F8FB08BD002022
:100C900000E0401C7828FCD37047002100E0491C8C
:100CA0008142FCD37047ADF5507D6422EC4901A828
:100CB00000F0CCFCFFF7C2FF00F053FA00F070FA2E
:100CC000C92000F0A1FA20B100F028FA00F082FA61
:100CD00001E000F07FFA00F063FAC92000F094FA16
:100CE00030B14FF40051DC48FFF775FC00BFFEE760
:100CF000002406E0002000F0CBFAC0A90855601CD3
:100D0000C4B2032CF6DB012000F0C2FA8DF8030315
:100D100000F060FA9DF80003042806D04FF400515B
:100D2000CD48FFF758FC00BFFEE709208DF8C00250
:100D3000C8208DF8C10203208DF8C20207208DF86B
:100D4000C30202208DF8C40280208DF8C502002065
:100D50008DF8C6028DF8C7029DF8C312891E88B2AD
:100D6000B2AA511F00F0DAFA00F01AFA01240DE0DD
:100D7000B0A9085D00F048FA30B14FF40051B64810
:100D8000FFF729FC00BFFEE7601CC4B20A2CEFDBB2
:100D900000F020FA012500240FE042F21070FFF766
:100DA0007CFF00F0FDF9C92000F02EFA08B90025FB
:100DB00005E000F00FFA601CC4B2042CEDDB00BFAC
:100DC00035B14FF40051A448FFF705FC00BFFEE722
:100DD000002406E0002000F05BFAB0A90855601C72
:100DE000C4B2222CF6DB012000F052FA8DF8E202A8
:100DF0009DF8C102012807D19DF8C202232803D122
:100E00009DF8CD02EE2806D04FF400519248FFF72E
:100E1000E2FB00BFFEE700F0DDF9002404E0002063
:100E20007EA90855601CC4B2142CF8DBC8208DF8CC
:100E3000C10203208DF8C2021B208DF8C3021620C8
:100E40008DF8C40200208DF8C5028DF8C6028DF819
:100E5000C702002407E07EA8015D04F10800B0AAE3
:100E60001154601CC4B2142CF5DB9DF8C312891E0A
:100E700088B2B7AA0DF2C32100F050FA00F090F941
:100E800001240DE0B0A9085D00F0BEF930B14FF4C7
:100E900000517148FFF79FFB00BFFEE7601CC4B222
:100EA0001E2CEFDB00F096F9012500240FE042F242
:100EB0001070FFF7F2FE00F073F9C92000F0A4F9FA
:100EC00008B9002505E000F085F9601CC4B2C82C03
:100ED000EDDB00BF35B14FF400515F48FFF77BFBFE
:100EE00000BFFEE7002406E0002000F0D1F9B0A921
:100EF0000855601CC4B2222CF6DB012000F0C8F9B2
:100F00008DF8E202002406E0601CB0A9085C97A9F5
:100F10000855601CC4B2202CF6DB00F05BF900F031
:100F20003FF9C8208DF8C10203208DF8C2020720C6
:100F30008DF8C30208208DF8C40201208DF8C50287
:100F400000208DF8C6028DF8C7029DF8C312891ED5
:100F500088B2B2AA511F00F0E1F901240DE0B0A956
:100F6000085D00F051F930B14FF400513A48FFF7F5
:100F700032FB00BFFEE7601CC4B20A2CEFDB00F0BE
:100F800029F9012500240FE042F21070FFF785FED9
:100F900000F006F9C92000F037F908B9002505E08E
:100FA00000F018F9601CC4B2C82CEDDB00BF35B1ED
:100FB0004FF400512848FFF70EFB00BFFEE7002466
:100FC00006E0002000F064F9B0A90855601CC4B226
:100FD000222CF6DB012000F05BF98DF8E202002400
:100FE00006E0601CB0A9085C4CA90855601CC4B29E
:100FF000202CF6DB00F0EEF8002405E097A8005D59
:1010000033A90855601CC4B2202CF7DB002407E08C
:101010007EA8015D04F1200033AA1154601CC4B203
:10102000142CF5DB16208DF8000100208DF801014D
:101030008DF802011AAA33A9372000F0A0F9202266
:101040001AA965A800F034FB202201A933A800F0FA
:101050002FFB202265A905E0001001400008014097
:10106000A01700083BA800F023FB08208DF80C0116
:1010700001208DF80D0100208DF80E018DF80F0173
:10108000002406E0002104F1440033AA1154601C3E
:10109000C4B20B2CF6DBEE208DF81B0100208DF87E
:1010A0001C018DF81D018DF81E018DF81F01012016
:1010B0008DF8200123208DF8210100208DF82201D8
:1010C0008DF823011AAA33A9582000F058F92022DC
:1010D0004CA91AA800F08EFA08B100BFFEE70FE095
:1010E0004FF400510748FFF776FA0748FFF7D5FDA0
:1010F0004FF400510348FFF76CFA0348FFF7CDFDAA
:10110000EEE700000010014080969800002001E00A
:10111000411C88B2B0F5FA7FFADB704710B5802128
:101120007C48FFF756FA002401E000BF641C642CE1
:10113000FBD380217748FFF74EFA002401E000BF7F
:10114000641C41F650108442F9D380217148FFF7A6
:1011500040FA002401E000BF641C6F488442FAD3C7
:1011600010BD08B501210820FFF7B8FCC020ADF87C
:10117000000003208DF8020014208DF8030069465A
:101180006448FFF77BF980216248FFF722FA40218B
:101190006048FFF71EFAFFF7B9FFFFF7B7FF08BD7A
:1011A00010B580215B48FFF714FAFFF7AFFF40212D
:1011B0005848FFF70EFAFFF7A9FF80215548FFF7BF
:1011C0000AFAFFF7A3FF40215248FFF704FAFFF79E
:1011D0009DFF10BD10B540214E48FFF7FCF9FFF709
:1011E00095FF80214B48FFF7F6F9FFF78FFF40216D
:1011F0004848FFF7EEF9FFF789FF80214548FFF7E0
:10120000E8F9FFF783FF10BD70B5044600261FE024
:1012100014F0800F04D080213E48FFF7DAF903E094
:1012200080213C48FFF7D7F9FFF770FF402139488C
:10123000FFF7CFF9FFF76AFFFFF768FF4021354856
:10124000FFF7C9F9FFF762FF6006040E701CC6B213
:10125000082EDDDB80212F48FFF7BBF9FFF756FF93
:1012600040212C48FFF7B5F9FFF750FF80212948AE
:10127000FFF795F908B1012500E00025FFF746FFCB
:1012800040212448FFF7A7F9FFF740FF284670BD2B
:1012900070B5054680211F48FFF79BF900261AE02C
:1012A0006006040EFFF732FF40211A48FFF791F95C
:1012B000FFF72CFF80211748FFF771F908B144F0C0
:1012C0000104FFF723FF40211248FFF784F9FFF7DD
:1012D0001DFF701CC6B2082EE2DB25B180210D482F
:1012E000FFF777F903E080210A48FFF774F9FFF769
:1012F0000DFF40210748FFF76CF9FFF707FFFFF7E5
:1013000005FF40210348FFF766F9FFF7FFFE20467F
:1013100070BD0000000C0140A0F104002DE9F04177
:1013200004460D46002048F2050700211EE0012377
:1013300016E015F8018018EA030F02D04FF00108FB
:1013400001E04FF00008C446C6134FF6FF7808EAE4
:101350004000B44500D078404FEA43684FEA186334
:10136000002BE6DC01F1010808F0FF01A142DEDB01
:1013700010704FEA202882F80180BDE8F0812DE945
:10138000F74FADF51A7D81468A4609F00300999022
:101390004FF0000809F1080098904FEAC9009790B3
:1013A0002022934941A800F051F94FF480729049EE
:1013B000203101A800F04AF9F6E0002500BF999815
:1013C000A9EB000040450EDD032608E0404608F189
:1013D00001081AF80000711949AA5054761E002E0F
:1013E000F4DA2D1D2EE0032608E0404608F101083E
:1013F0001AF80000711949AA5054761E9998C0F144
:101400000400B042F1D98020711949AA5054761EC7
:1014100004E00020711949AA5054761E002EF8DA13
:101420002D1DAD0805E0002228466D1C49A941F894
:1014300020200F2DF7D349A9979841F8250008F1EE
:10144000400807E04FEAE87108EB91618911B8EBB9
:101450008111B4D100BF10252EE0A5F10F0049A9DC
:1014600051F82070F80940EA4760B90C41EA873129
:10147000484080EAD7009690A81E49A951F82070EC
:10148000780C40EAC730F90C41EA4731484080EA1D
:1014900097209590A5F1100049A951F82010969831
:1014A0000144E81F49AA52F82000014495980844D5
:1014B00049A941F825006D1C402DCED3002406E03B
:1014C00041A850F8240089A941F82400641C082C84
:1014D000F6D3002457E089988008899940EA817002
:1014E000490B899A41EAC2414840910D41EA822163
:1014F000484096908A99899808408B9A899911401A
:1015000048408A9911404840929096999298014497
:1015100093918D9880098D9940EA8160C90A8D9ACE
:1015200041EA42514840510E41EAC211484095906B
:101530008E998D9808408D9A8F999143484091904B
:101540009099959801449198084401A951F8241064
:10155000084449A951F82410084494908F98909019
:101560008E988F908D988E908C99949808448D9039
:101570008B988C908A988B9089988A90939994985C
:1015800008448990641C402CA5D300240AE041A89B
:1015900050F8240089A951F82410084441A941F8C1
:1015A0002400641C082CF2D3989880457FF605AF80
:1015B000002416E04FF0030B0FE041A810F82410B0
:1015C0000BEB84029C988154ABF1010B41A850F8BD
:1015D0002400000A41A941F82400BBF1000FECDA15
:1015E000641C082CE6D30DF51D7DBDE8F08F0000CE
:1015F0000418000840EA010310B59B070FD1042A24
:101600000DD310C808C9121F9C42F8D020BA19BACD
:10161000884201D9012010BD4FF0FF3010BD1AB132
:10162000D30703D0521C07E0002010BD10F8013B87
:1016300011F8014B1B1B07D110F8013B11F8014BAE
:101640001B1B01D1921EF1D1184610BD10B5203AD6
:10165000C0F00B80B1E81850203AA0E81850B1E86B
:101660001850A0E81850BFF4F5AF5FEA027C24BF21
:10167000B1E81850A0E8185044BF18C918C0BDE818
:1016800010405FEA827C24BF51F8043B40F8043BE1
:1016900008BF7047D20728BF31F8023B48BF11F896
:1016A000012B28BF20F8023B48BF00F8012B7047F0
:1016B000431A28BF9A427FF6C9AF104410F0030FB7
:1016C00011441EBF11F8013D521E00F8013D10F0FB
:1016D000030F7FF4F6AF103AC0F00A8010B531E97D
:1016E0001850103A20E91850BFF4F9AFBDE8104087
:1016F000530724BF31E9081020E9081044BF51F80E
:10170000043D40F8043D12F0030F08BF7047D207B4
:1017100028BF31F8023D48BF11F8012C28BF20F83E
:10172000023D48BF00F8012C704770477047704772
:10173000754600F029F8AE4605006946534620F08C
:101740000700854618B020B5FEF738FDBDE82040FB
:101750004FF000064FF000074FF000084FF0000B6D
:1017600021F00701AC46ACE8C009ACE8C009ACE820
:10177000C009ACE8C0098D4670470446AFF300804D
:101780002046FEF706FD0000004870472C000020B0
:1017900001491820ABBEFEE726000200704700009A
:1017A0004E676F2048756E672043756F6E672044E3
:1017B000617461205A6F6E652030000000000000E7
:1017C0000000000000000000000000000000000019
:1017D0000000000000000000000000000000000009
:1017E00000000000000000000000000000000000F9
:1017F00000000000000000000000000000000000E9
:101800000000000067E6096A85AE67BB72F36E3CB4
:101810003AF54FA57F520E518C68059BABD9831FBB
:1018200019CDE05B982F8A4291443771CFFBC0B548
:10183000A5DBB5E95BC25639F111F159A4823F929B
:10184000D55E1CAB98AA07D8015B8312BE853124F4
:10185000C37D0C55745DBE72FEB1DE80A706DC9BB5
:1018600074F19BC1C1699BE48647BEEFC69DC10F61
:10187000CCA10C246F2CE92DAA84744ADCA9B05C9D
:10188000DA88F97652513E986DC631A8C82703B060
:10189000C77F59BFF30BE0C64791A7D55163CA066E
:1018A00067292914850AB72738211B2EFC6D2C4D7A
:1018B000130D385354730A65BB0A6A762EC9C28168
:1018C000852C7292A1E8BFA24B661AA8708B4BC2FE
:1018D000A3516CC719E892D1240699D685350EF428
:1018E00070A06A1016C1A419086C371E4C774827DF
:1018F000B5BCB034B30C1C394AAAD84E4FCA9C5B55
:10190000F36F2E68EE828F746F63A5781478C884A5
:101910000802C78CFAFFBE90EB6C50A4F7A3F9BE87
:10192000F27871C644190008000000202C00000065
:1019300040010008701900082C0000206406000017
:101940005C01000800F36F060000000000000000CA
:10195000010203040607080900000000000000005F
:101960000102030406070809000000000102030445
:0400000508000105E9
:00000001FF
